:100000000C945C000C94F7010C94D0010C947900D2
:100010000C9479000C9479000C9479000C9479007C
:100020000C9479000C9479000C9479000C9479006C
:100030000C9479000C9479000C9479000C9479005C
:100040000C9486010C9479000C9479000C9479003E
:100050000C9479000C9479000C9479000C9479003C
:100060000C9479000C947900000000002400270013
:100070002A0000000000250028002B0004040404CE
:100080000404040402020202020203030303030342
:10009000010204081020408001020408102001021F
:1000A00004081020000000080002010000030407FB
:1000B000000000000000000011241FBECFEFD8E0B8
:1000C000DEBFCDBF11E0A0E0B1E0E2E5F9E002C0A3
:1000D00005900D92AC30B107D9F721E0ACE0B1E06A
:1000E00001C01D92A731B207E1F70E941E020C94D5
:1000F000A7040C94000090E0FC01EC55FF4F249104
:10010000FC01E057FF4F3491FC01E458FF4FE491AC
:10011000EE23C9F0222339F0233001F1A8F4213075
:1001200019F1223029F1F0E0EE0FFF1FEE58FF4FDA
:10013000A591B4918FB7F894EC91611126C03095D8
:100140003E233C938FBF08952730A9F02830C9F093
:10015000243049F7809180008F7D03C0809180001A
:100160008F7780938000DFCF84B58F7784BDDBCF1E
:1001700084B58F7DFBCF8091B0008F778093B000E6
:10018000D2CF8091B0008F7DF9CF3E2BDACFCF93C5
:10019000DF9390E0FC01E057FF4F249184589F4F7C
:1001A000FC0184918823D1F090E0880F991FFC0115
:1001B000E859FF4FA591B491FC01EE58FF4FC5914E
:1001C000D491623071F49FB7F8943C91822F80955E
:1001D00083238C93E8812E2B28839FBFDF91CF91BF
:1001E00008958FB7F894EC912E2B2C938FBFF6CFF8
:1001F0003FB7F8948091130190911401A0911501DB
:10020000B091160126B5A89B05C02F3F19F00196A5
:10021000A11DB11D3FBFBA2FA92F982F8827BC0160
:10022000CD01620F711D811D911D42E0660F771F88
:10023000881F991F4A95D1F708958F929F92AF9288
:10024000BF92CF92DF92EF92FF926B017C010E94EE
:10025000F8004B015C01C114D104E104F104B9F0D0
:100260000E94F800681979098A099B09683E734061
:100270008105910580F321E0C21AD108E108F10857
:1002800088EE880E83E0981EA11CB11CE4CFFF907D
:10029000EF90DF90CF90BF90AF909F908F90089598
:1002A00061E08DE00E947B0064E670E080E090E019
:1002B0000E941D0160E08DE00E947B0064E670E01A
:1002C00080E090E00C941D0180910C0190910D0153
:1002D00001968B30910528F490930D0180930C01C9
:1002E000089510920D0110920C0108950895CF9376
:1002F000DF93C4E0D1E060E089910E947B0081E05F
:10030000CC30D807C1F7DF91CF9108951F920F929B
:100310000FB60F9211242F933F938F939F93AF9318
:10032000BF9380910F0190911001A0911101B091A4
:10033000120130910E0123E0230F2D3758F501965D
:10034000A11DB11D20930E0180930F019093100108
:10035000A0931101B09312018091130190911401A7
:10036000A0911501B09116010196A11DB11D8093B8
:10037000130190931401A0931501B0931601BF913E
:10038000AF919F918F913F912F910F900FBE0F9042
:100390001F90189526E8230F0296A11DB11DD2CFFC
:1003A0001F920F920FB60F9211242F933F934F93EA
:1003B0005F936F937F938F939F93AF93BF93EF93CD
:1003C000FF93E0910201F09103010995FF91EF91F4
:1003D000BF91AF919F918F917F916F915F914F915D
:1003E0003F912F910F900FBE0F901F9018951F9265
:1003F0000F920FB60F9211242F933F934F935F9359
:100400006F937F938F939F93AF93BF93EF93FF93DC
:10041000E0910001F09101010995FF91EF91BF91E9
:10042000AF919F918F917F916F915F914F913F918C
:100430002F910F900FBE0F901F901895789484B550
:10044000826084BD84B5816084BD85B5826085BDD0
:1004500085B5816085BD80916E00816080936E005E
:100460001092810080918100826080938100809150
:100470008100816080938100809180008160809301
:1004800080008091B10084608093B1008091B000C1
:1004900081608093B00080917A00846080937A00BC
:1004A00080917A00826080937A0080917A008160E6
:1004B00080937A0080917A00806880937A0010920D
:1004C000C100C4E0D1E0199161E0812F0E94C70012
:1004D00060E0812F0E947B0081E0CC30D80799F743
:1004E00061E08DE00E94C70062E082E00E94C700E8
:1004F00084E691E09093010180930001809169006E
:100500008C7F826080936900E89A8AE090E0909303
:100510000D0180930C010E9450010E94500100E0E7
:1005200010E0E0910C01F0910D01EB30F10508F0C5
:1005300040C0E356FD4F0C94A104A802C102E002A2
:10054000F90224033D0354038103C803080444044F
:10055000C4E0D1E061E089910E947B00E1E0CC3011
:10056000DE07C1F764E670E080E090E00E941D01C4
:100570000E94770164E670E080E090E00E941D0137
:1005800018C00E94770164E670E080E090E00E946D
:100590001D01C4E0D1E061E089910E947B0064E626
:1005A00070E080E090E00E941D01F1E0CC30DF07B8
:1005B00091F70115110509F4B4CF0E940000B1CFE5
:1005C0000E94770164E670E080E090E00E941D01E7
:1005D000CCE0D1E061E08A910E947B0064E670E0AB
:1005E00080E090E00E941D0181E0C430D80791F7BF
:1005F000E0CF0E94770164E670E080E090E00E9426
:100600001D01C4E0D1E061E089910E947B0064E6B5
:1006100070E080E090E00E941D01E1E0CC30DE0758
:1006200091F70E947701CCE0D1E061E08A910E94CD
:100630007B0064E670E080E090E00E941D01F1E044
:10064000C430DF0791F7B5CF0E947701C4E0D1E055
:1006500061E089910E947B00FE01329760E0808119
:100660000E947B0064E670E080E090E00E941D0143
:1006700081E0CC30D80761F79CCF0E947701CCE0B5
:10068000D1E061E08A910E947B0060E089810E9454
:100690007B0064E670E080E090E00E941D01E1E0F4
:1006A000C430DE0771F785CF0E947701C4E0D1E046
:1006B00061E089910E947B00FE01329760E08081B9
:1006C0000E947B0064E670E080E090E00E941D01E3
:1006D000F1E0CC30DF0761F7CCE0D1E061E08A9156
:1006E0000E947B0060E089810E947B0064E670E0EC
:1006F00080E090E00E941D0181E0C430D80771F7CE
:1007000058CF61E083E00E947B0060E084E00E94BB
:100710007B0061E085E00E947B0060E086E00E9453
:100720007B0061E087E00E947B0060E088E00E943F
:100730007B0061E089E00E947B0060E08AE00E942B
:100740007B0064E670E080E090E00E941D0160E0C4
:1007500083E00E947B0061E084E00E947B0060E017
:1007600085E00E947B0061E086E00E947B0060E003
:1007700087E00E947B0061E088E00E947B0060E0EF
:1007800089E00E947B0061E08AE00E947B00F2CE5B
:1007900061E083E00E947B0061E084E00E947B00D6
:1007A00060E085E00E947B0060E086E00E947B00C4
:1007B00061E087E00E947B0061E088E00E947B00AE
:1007C00060E089E00E947B0060E08AE00E947B009C
:1007D00064E670E080E090E00E941D0160E083E04C
:1007E0000E947B0060E084E00E947B0061E085E085
:1007F0000E947B0061E086E00E947B0060E087E071
:100800000E947B0060E088E00E947B0061E0B8CF3E
:1008100061E083E00E947B0061E084E00E947B0055
:1008200061E085E00E947B0061E086E00E947B0041
:1008300060E087E00E947B0060E088E00E947B002F
:1008400060E089E00E947B0060E08AE00E947B001B
:1008500064E670E080E090E00E941D0160E083E0CB
:100860000E947B0060E084E00E947B0060E085E005
:100870000E947B0060E086E00E947B0061E087E0F0
:100880000E947B0061E0BFCF0E94770164E670E0C8
:1008900080E090E00E941D01C4E0D1E061E0899118
:1008A0000E947B0064E670E080E090E00E941D0101
:1008B000E1E0CC30DE0791F764E670E080E090E0A4
:1008C0000E941D01C4E0D1E060E089910E947B009C
:1008D00064E670E080E090E00E941D01F1E0CC3021
:1008E000DF0791F764E670E080E090E00E941D0170
:1008F000CCE0D1E07E0161E0F70182917F010E94AE
:100900007B0064E670E080E090E00E941D01F4E06E
:10091000EF16F1E0FF0679F764E670E080E090E022
:100920000E941D0160E08A910E947B0064E670E0F5
:1009300080E090E00E941D0181E0C430D80791F76B
:1009400038CEEE0FFF1F0590F491E02D0994F89436
:02095000FFCFD7
:0C09520076017601030405060708090A77
:00000001FF
